{
    "_format": "hh-sol-artifact-1",
    "contractName": "Record",
    "sourceName": "contracts/Record.sol",
    "abi": [
        {
            "inputs": [
                {
                    "internalType": "string",
                    "name": "_name",
                    "type": "string"
                },
                {
                    "internalType": "string",
                    "name": "_ipfs",
                    "type": "string"
                }
            ],
            "stateMutability": "nonpayable",
            "type": "constructor"
        },
        {
            "anonymous": false,
            "inputs": [
                {
                    "indexed": false,
                    "internalType": "address",
                    "name": "_doctor",
                    "type": "address"
                },
                {
                    "indexed": false,
                    "internalType": "bool",
                    "name": "_enabled",
                    "type": "bool"
                }
            ],
            "name": "DoctorAccessSet",
            "type": "event"
        },
        {
            "anonymous": false,
            "inputs": [
                {
                    "indexed": true,
                    "internalType": "address",
                    "name": "previousOwner",
                    "type": "address"
                },
                {
                    "indexed": true,
                    "internalType": "address",
                    "name": "newOwner",
                    "type": "address"
                }
            ],
            "name": "OwnershipTransferred",
            "type": "event"
        },
        {
            "inputs": [
                {
                    "internalType": "address[]",
                    "name": "doctors",
                    "type": "address[]"
                },
                {
                    "internalType": "bool[]",
                    "name": "enabled",
                    "type": "bool[]"
                }
            ],
            "name": "batchSetDoctorAccess",
            "outputs": [],
            "stateMutability": "nonpayable",
            "type": "function"
        },
        {
            "inputs": [],
            "name": "getDetails",
            "outputs": [
                {
                    "internalType": "string",
                    "name": "",
                    "type": "string"
                },
                {
                    "internalType": "string",
                    "name": "",
                    "type": "string"
                }
            ],
            "stateMutability": "view",
            "type": "function"
        },
        {
            "inputs": [
                {
                    "internalType": "address",
                    "name": "doctor",
                    "type": "address"
                }
            ],
            "name": "isDoctor",
            "outputs": [
                {
                    "internalType": "bool",
                    "name": "",
                    "type": "bool"
                }
            ],
            "stateMutability": "view",
            "type": "function"
        },
        {
            "inputs": [],
            "name": "owner",
            "outputs": [
                {
                    "internalType": "address",
                    "name": "",
                    "type": "address"
                }
            ],
            "stateMutability": "view",
            "type": "function"
        },
        {
            "inputs": [],
            "name": "renounceOwnership",
            "outputs": [],
            "stateMutability": "nonpayable",
            "type": "function"
        },
        {
            "inputs": [
                {
                    "internalType": "address",
                    "name": "doctor",
                    "type": "address"
                },
                {
                    "internalType": "bool",
                    "name": "enabled",
                    "type": "bool"
                }
            ],
            "name": "setDoctorAccess",
            "outputs": [],
            "stateMutability": "nonpayable",
            "type": "function"
        },
        {
            "inputs": [
                {
                    "internalType": "address",
                    "name": "newOwner",
                    "type": "address"
                }
            ],
            "name": "transferOwnership",
            "outputs": [],
            "stateMutability": "nonpayable",
            "type": "function"
        }
    ],
    "bytecode": "0x60806040523480156200001157600080fd5b50604051620012f2380380620012f283398181016040528101906200003791906200027f565b620000576200004b6200009160201b60201c565b6200009960201b60201c565b81600290805190602001906200006f9291906200015d565b508060039080519060200190620000889291906200015d565b50505062000423565b600033905090565b60008060009054906101000a900473ffffffffffffffffffffffffffffffffffffffff169050816000806101000a81548173ffffffffffffffffffffffffffffffffffffffff021916908373ffffffffffffffffffffffffffffffffffffffff1602179055508173ffffffffffffffffffffffffffffffffffffffff168173ffffffffffffffffffffffffffffffffffffffff167f8be0079c531659141344cd1fd0a4f28419497f9722a3daafe3b4186f6b6457e060405160405180910390a35050565b8280546200016b906200038f565b90600052602060002090601f0160209004810192826200018f5760008555620001db565b82601f10620001aa57805160ff1916838001178555620001db565b82800160010185558215620001db579182015b82811115620001da578251825591602001919060010190620001bd565b5b509050620001ea9190620001ee565b5090565b5b8082111562000209576000816000905550600101620001ef565b5090565b6000620002246200021e8462000326565b620002f2565b9050828152602081018484840111156200023d57600080fd5b6200024a84828562000359565b509392505050565b600082601f8301126200026457600080fd5b8151620002768482602086016200020d565b91505092915050565b600080604083850312156200029357600080fd5b600083015167ffffffffffffffff811115620002ae57600080fd5b620002bc8582860162000252565b925050602083015167ffffffffffffffff811115620002da57600080fd5b620002e88582860162000252565b9150509250929050565b6000604051905081810181811067ffffffffffffffff821117156200031c576200031b620003f4565b5b8060405250919050565b600067ffffffffffffffff821115620003445762000343620003f4565b5b601f19601f8301169050602081019050919050565b60005b83811015620003795780820151818401526020810190506200035c565b8381111562000389576000848401525b50505050565b60006002820490506001821680620003a857607f821691505b60208210811415620003bf57620003be620003c5565b5b50919050565b7f4e487b7100000000000000000000000000000000000000000000000000000000600052602260045260246000fd5b7f4e487b7100000000000000000000000000000000000000000000000000000000600052604160045260246000fd5b610ebf80620004336000396000f3fe608060405234801561001057600080fd5b506004361061007d5760003560e01c8063996440c61161005b578063996440c6146100c6578063e4c0e1b3146100f6578063f2fde38b14610112578063fbbf93a01461012e5761007d565b806348e5f3e614610082578063715018a61461009e5780638da5cb5b146100a8575b600080fd5b61009c600480360381019061009791906108fd565b61014d565b005b6100a6610247565b005b6100b061025b565b6040516100bd9190610b0c565b60405180910390f35b6100e060048036038101906100db9190610898565b610284565b6040516100ed9190610b50565b60405180910390f35b610110600480360381019061010b91906108c1565b6102da565b005b61012c60048036038101906101279190610898565b610376565b005b6101366103fa565b604051610144929190610b6b565b60405180910390f35b6101556105f8565b8051825114610199576040517f08c379a000000000000000000000000000000000000000000000000000000000815260040161019090610c02565b60405180910390fd5b60005b82518110156102425761022f8382815181106101e1577f4e487b7100000000000000000000000000000000000000000000000000000000600052603260045260246000fd5b6020026020010151838381518110610222577f4e487b7100000000000000000000000000000000000000000000000000000000600052603260045260246000fd5b60200260200101516102da565b808061023a90610d74565b91505061019c565b505050565b61024f6105f8565b6102596000610676565b565b60008060009054906101000a900473ffffffffffffffffffffffffffffffffffffffff16905090565b6000600160008373ffffffffffffffffffffffffffffffffffffffff1673ffffffffffffffffffffffffffffffffffffffff16815260200190815260200160002060009054906101000a900460ff169050919050565b6102e26105f8565b80600160008473ffffffffffffffffffffffffffffffffffffffff1673ffffffffffffffffffffffffffffffffffffffff16815260200190815260200160002060006101000a81548160ff0219169083151502179055507fe54781a67ff62595ba0a6aff46b2749f8d90a72670f18af5ed8a20c5ca7a7b80828260405161036a929190610b27565b60405180910390a15050565b61037e6105f8565b600073ffffffffffffffffffffffffffffffffffffffff168173ffffffffffffffffffffffffffffffffffffffff1614156103ee576040517f08c379a00000000000000000000000000000000000000000000000000000000081526004016103e590610ba2565b60405180910390fd5b6103f781610676565b50565b6060806001600061040961073a565b73ffffffffffffffffffffffffffffffffffffffff1673ffffffffffffffffffffffffffffffffffffffff16815260200190815260200160002060009054906101000a900460ff1680610495575061045f61025b565b73ffffffffffffffffffffffffffffffffffffffff1661047d61073a565b73ffffffffffffffffffffffffffffffffffffffff16145b6104d4576040517f08c379a00000000000000000000000000000000000000000000000000000000081526004016104cb90610bc2565b60405180910390fd5b600260038180546104e490610d42565b80601f016020809104026020016040519081016040528092919081815260200182805461051090610d42565b801561055d5780601f106105325761010080835404028352916020019161055d565b820191906000526020600020905b81548152906001019060200180831161054057829003601f168201915b5050505050915080805461057090610d42565b80601f016020809104026020016040519081016040528092919081815260200182805461059c90610d42565b80156105e95780601f106105be576101008083540402835291602001916105e9565b820191906000526020600020905b8154815290600101906020018083116105cc57829003601f168201915b50505050509050915091509091565b61060061073a565b73ffffffffffffffffffffffffffffffffffffffff1661061e61025b565b73ffffffffffffffffffffffffffffffffffffffff1614610674576040517f08c379a000000000000000000000000000000000000000000000000000000000815260040161066b90610be2565b60405180910390fd5b565b60008060009054906101000a900473ffffffffffffffffffffffffffffffffffffffff169050816000806101000a81548173ffffffffffffffffffffffffffffffffffffffff021916908373ffffffffffffffffffffffffffffffffffffffff1602179055508173ffffffffffffffffffffffffffffffffffffffff168173ffffffffffffffffffffffffffffffffffffffff167f8be0079c531659141344cd1fd0a4f28419497f9722a3daafe3b4186f6b6457e060405160405180910390a35050565b600033905090565b600061075561075084610c53565b610c22565b9050808382526020820190508285602086028201111561077457600080fd5b60005b858110156107a4578161078a888261081a565b845260208401935060208301925050600181019050610777565b5050509392505050565b60006107c16107bc84610c7f565b610c22565b905080838252602082019050828560208602820111156107e057600080fd5b60005b8581101561081057816107f68882610883565b8452602084019350602083019250506001810190506107e3565b5050509392505050565b60008135905061082981610e5b565b92915050565b600082601f83011261084057600080fd5b8135610850848260208601610742565b91505092915050565b600082601f83011261086a57600080fd5b813561087a8482602086016107ae565b91505092915050565b60008135905061089281610e72565b92915050565b6000602082840312156108aa57600080fd5b60006108b88482850161081a565b91505092915050565b600080604083850312156108d457600080fd5b60006108e28582860161081a565b92505060206108f385828601610883565b9150509250929050565b6000806040838503121561091057600080fd5b600083013567ffffffffffffffff81111561092a57600080fd5b6109368582860161082f565b925050602083013567ffffffffffffffff81111561095357600080fd5b61095f85828601610859565b9150509250929050565b61097281610cc7565b82525050565b61098181610cd9565b82525050565b600061099282610cab565b61099c8185610cb6565b93506109ac818560208601610d0f565b6109b581610e4a565b840191505092915050565b60006109cd602683610cb6565b91507f4f776e61626c653a206e6577206f776e657220697320746865207a65726f206160008301527f64647265737300000000000000000000000000000000000000000000000000006020830152604082019050919050565b6000610a33603c83610cb6565b91507f41636365737350726f7465637465643a2043616c6c657220646f6573206e6f7460008301527f206861766520446f63746f72206f72204f776e657220416363657373000000006020830152604082019050919050565b6000610a99602083610cb6565b91507f4f776e61626c653a2063616c6c6572206973206e6f7420746865206f776e65726000830152602082019050919050565b6000610ad9600f83610cb6565b91507f4c656e677468206d69736d6174636800000000000000000000000000000000006000830152602082019050919050565b6000602082019050610b216000830184610969565b92915050565b6000604082019050610b3c6000830185610969565b610b496020830184610978565b9392505050565b6000602082019050610b656000830184610978565b92915050565b60006040820190508181036000830152610b858185610987565b90508181036020830152610b998184610987565b90509392505050565b60006020820190508181036000830152610bbb816109c0565b9050919050565b60006020820190508181036000830152610bdb81610a26565b9050919050565b60006020820190508181036000830152610bfb81610a8c565b9050919050565b60006020820190508181036000830152610c1b81610acc565b9050919050565b6000604051905081810181811067ffffffffffffffff82111715610c4957610c48610e1b565b5b8060405250919050565b600067ffffffffffffffff821115610c6e57610c6d610e1b565b5b602082029050602081019050919050565b600067ffffffffffffffff821115610c9a57610c99610e1b565b5b602082029050602081019050919050565b600081519050919050565b600082825260208201905092915050565b6000610cd282610ce5565b9050919050565b60008115159050919050565b600073ffffffffffffffffffffffffffffffffffffffff82169050919050565b6000819050919050565b60005b83811015610d2d578082015181840152602081019050610d12565b83811115610d3c576000848401525b50505050565b60006002820490506001821680610d5a57607f821691505b60208210811415610d6e57610d6d610dec565b5b50919050565b6000610d7f82610d05565b91507fffffffffffffffffffffffffffffffffffffffffffffffffffffffffffffffff821415610db257610db1610dbd565b5b600182019050919050565b7f4e487b7100000000000000000000000000000000000000000000000000000000600052601160045260246000fd5b7f4e487b7100000000000000000000000000000000000000000000000000000000600052602260045260246000fd5b7f4e487b7100000000000000000000000000000000000000000000000000000000600052604160045260246000fd5b6000601f19601f8301169050919050565b610e6481610cc7565b8114610e6f57600080fd5b50565b610e7b81610cd9565b8114610e8657600080fd5b5056fea264697066735822122023ed6901b0fbfe2eca8172e66dabe3b96c6bb76b4e2e6639989c80d79e90a0cf64736f6c63430008000033",
    "linkReferences": {},
    "deployedLinkReferences": {}
}