{
  "address": "0x31Ef6675B147bFCa2ab7dF6462547110c98F0B00",
  "abi": [
    {
      "inputs": [
        {
          "internalType": "string",
          "name": "name",
          "type": "string"
        },
        {
          "internalType": "string",
          "name": "symbol",
          "type": "string"
        }
      ],
      "stateMutability": "nonpayable",
      "type": "constructor"
    },
    {
      "anonymous": false,
      "inputs": [
        {
          "indexed": true,
          "internalType": "address",
          "name": "owner",
          "type": "address"
        },
        {
          "indexed": true,
          "internalType": "address",
          "name": "approved",
          "type": "address"
        },
        {
          "indexed": true,
          "internalType": "uint256",
          "name": "tokenId",
          "type": "uint256"
        }
      ],
      "name": "Approval",
      "type": "event"
    },
    {
      "anonymous": false,
      "inputs": [
        {
          "indexed": true,
          "internalType": "address",
          "name": "owner",
          "type": "address"
        },
        {
          "indexed": true,
          "internalType": "address",
          "name": "operator",
          "type": "address"
        },
        {
          "indexed": false,
          "internalType": "bool",
          "name": "approved",
          "type": "bool"
        }
      ],
      "name": "ApprovalForAll",
      "type": "event"
    },
    {
      "anonymous": false,
      "inputs": [
        {
          "indexed": true,
          "internalType": "address",
          "name": "previousOwner",
          "type": "address"
        },
        {
          "indexed": true,
          "internalType": "address",
          "name": "newOwner",
          "type": "address"
        }
      ],
      "name": "OwnershipTransferred",
      "type": "event"
    },
    {
      "anonymous": false,
      "inputs": [
        {
          "indexed": true,
          "internalType": "address",
          "name": "from",
          "type": "address"
        },
        {
          "indexed": true,
          "internalType": "address",
          "name": "to",
          "type": "address"
        },
        {
          "indexed": true,
          "internalType": "uint256",
          "name": "tokenId",
          "type": "uint256"
        }
      ],
      "name": "Transfer",
      "type": "event"
    },
    {
      "inputs": [
        {
          "internalType": "address",
          "name": "user",
          "type": "address"
        }
      ],
      "name": "addToBlacklist",
      "outputs": [],
      "stateMutability": "nonpayable",
      "type": "function"
    },
    {
      "inputs": [
        {
          "internalType": "address",
          "name": "user",
          "type": "address"
        }
      ],
      "name": "addToWhitelist",
      "outputs": [],
      "stateMutability": "nonpayable",
      "type": "function"
    },
    {
      "inputs": [
        {
          "internalType": "address",
          "name": "to",
          "type": "address"
        },
        {
          "internalType": "uint256",
          "name": "tokenId",
          "type": "uint256"
        }
      ],
      "name": "approve",
      "outputs": [],
      "stateMutability": "nonpayable",
      "type": "function"
    },
    {
      "inputs": [
        {
          "internalType": "address",
          "name": "owner",
          "type": "address"
        }
      ],
      "name": "balanceOf",
      "outputs": [
        {
          "internalType": "uint256",
          "name": "",
          "type": "uint256"
        }
      ],
      "stateMutability": "view",
      "type": "function"
    },
    {
      "inputs": [],
      "name": "getAllTokens",
      "outputs": [
        {
          "internalType": "uint256[]",
          "name": "",
          "type": "uint256[]"
        },
        {
          "internalType": "string[]",
          "name": "",
          "type": "string[]"
        }
      ],
      "stateMutability": "view",
      "type": "function"
    },
    {
      "inputs": [
        {
          "internalType": "uint256",
          "name": "tokenId",
          "type": "uint256"
        }
      ],
      "name": "getApproved",
      "outputs": [
        {
          "internalType": "address",
          "name": "",
          "type": "address"
        }
      ],
      "stateMutability": "view",
      "type": "function"
    },
    {
      "inputs": [
        {
          "internalType": "address",
          "name": "owner",
          "type": "address"
        },
        {
          "internalType": "address",
          "name": "operator",
          "type": "address"
        }
      ],
      "name": "isApprovedForAll",
      "outputs": [
        {
          "internalType": "bool",
          "name": "",
          "type": "bool"
        }
      ],
      "stateMutability": "view",
      "type": "function"
    },
    {
      "inputs": [
        {
          "internalType": "address",
          "name": "recipient",
          "type": "address"
        },
        {
          "internalType": "string",
          "name": "uri",
          "type": "string"
        }
      ],
      "name": "mintNFT",
      "outputs": [],
      "stateMutability": "nonpayable",
      "type": "function"
    },
    {
      "inputs": [],
      "name": "name",
      "outputs": [
        {
          "internalType": "string",
          "name": "",
          "type": "string"
        }
      ],
      "stateMutability": "view",
      "type": "function"
    },
    {
      "inputs": [],
      "name": "owner",
      "outputs": [
        {
          "internalType": "address",
          "name": "",
          "type": "address"
        }
      ],
      "stateMutability": "view",
      "type": "function"
    },
    {
      "inputs": [
        {
          "internalType": "uint256",
          "name": "tokenId",
          "type": "uint256"
        }
      ],
      "name": "ownerOf",
      "outputs": [
        {
          "internalType": "address",
          "name": "",
          "type": "address"
        }
      ],
      "stateMutability": "view",
      "type": "function"
    },
    {
      "inputs": [
        {
          "internalType": "address",
          "name": "user",
          "type": "address"
        }
      ],
      "name": "removeFromBlacklist",
      "outputs": [],
      "stateMutability": "nonpayable",
      "type": "function"
    },
    {
      "inputs": [
        {
          "internalType": "address",
          "name": "user",
          "type": "address"
        }
      ],
      "name": "removeFromWhitelist",
      "outputs": [],
      "stateMutability": "nonpayable",
      "type": "function"
    },
    {
      "inputs": [],
      "name": "renounceOwnership",
      "outputs": [],
      "stateMutability": "nonpayable",
      "type": "function"
    },
    {
      "inputs": [
        {
          "internalType": "address",
          "name": "from",
          "type": "address"
        },
        {
          "internalType": "address",
          "name": "to",
          "type": "address"
        },
        {
          "internalType": "uint256",
          "name": "tokenId",
          "type": "uint256"
        }
      ],
      "name": "safeTransferFrom",
      "outputs": [],
      "stateMutability": "nonpayable",
      "type": "function"
    },
    {
      "inputs": [
        {
          "internalType": "address",
          "name": "from",
          "type": "address"
        },
        {
          "internalType": "address",
          "name": "to",
          "type": "address"
        },
        {
          "internalType": "uint256",
          "name": "tokenId",
          "type": "uint256"
        },
        {
          "internalType": "bytes",
          "name": "_data",
          "type": "bytes"
        }
      ],
      "name": "safeTransferFrom",
      "outputs": [],
      "stateMutability": "nonpayable",
      "type": "function"
    },
    {
      "inputs": [
        {
          "internalType": "address",
          "name": "operator",
          "type": "address"
        },
        {
          "internalType": "bool",
          "name": "approved",
          "type": "bool"
        }
      ],
      "name": "setApprovalForAll",
      "outputs": [],
      "stateMutability": "nonpayable",
      "type": "function"
    },
    {
      "inputs": [
        {
          "internalType": "bytes4",
          "name": "interfaceId",
          "type": "bytes4"
        }
      ],
      "name": "supportsInterface",
      "outputs": [
        {
          "internalType": "bool",
          "name": "",
          "type": "bool"
        }
      ],
      "stateMutability": "view",
      "type": "function"
    },
    {
      "inputs": [],
      "name": "symbol",
      "outputs": [
        {
          "internalType": "string",
          "name": "",
          "type": "string"
        }
      ],
      "stateMutability": "view",
      "type": "function"
    },
    {
      "inputs": [
        {
          "internalType": "uint256",
          "name": "tokenId",
          "type": "uint256"
        }
      ],
      "name": "tokenURI",
      "outputs": [
        {
          "internalType": "string",
          "name": "",
          "type": "string"
        }
      ],
      "stateMutability": "view",
      "type": "function"
    },
    {
      "inputs": [
        {
          "internalType": "address",
          "name": "from",
          "type": "address"
        },
        {
          "internalType": "address",
          "name": "to",
          "type": "address"
        },
        {
          "internalType": "uint256",
          "name": "tokenId",
          "type": "uint256"
        }
      ],
      "name": "transferFrom",
      "outputs": [],
      "stateMutability": "nonpayable",
      "type": "function"
    },
    {
      "inputs": [
        {
          "internalType": "address",
          "name": "newOwner",
          "type": "address"
        }
      ],
      "name": "transferOwnership",
      "outputs": [],
      "stateMutability": "nonpayable",
      "type": "function"
    },
    {
      "inputs": [
        {
          "internalType": "uint256",
          "name": "tokenId",
          "type": "uint256"
        },
        {
          "internalType": "string",
          "name": "uri",
          "type": "string"
        }
      ],
      "name": "updateTokenURI",
      "outputs": [],
      "stateMutability": "nonpayable",
      "type": "function"
    }
  ],
  "transactionHash": "0x3d5ab677829037b7de7ea67bcfbb841a71df39ec0833f830912a226bbcc68f33",
  "args": [
    "CAD Collection",
    "CAD"
  ],
  "numDeployments": 1,
  "solcInputHash": "a3b3b51e0349c2178acf2db5ac0f913b",
  "bytecode": "0x60806040523480156200001157600080fd5b50604051620040db380380620040db833981810160405281019062000037919062000285565b818181600090805190602001906200005192919062000163565b5080600190805190602001906200006a92919062000163565b5050506200008d620000816200009560201b60201c565b6200009d60201b60201c565b505062000429565b600033905090565b6000600760009054906101000a900473ffffffffffffffffffffffffffffffffffffffff16905081600760006101000a81548173ffffffffffffffffffffffffffffffffffffffff021916908373ffffffffffffffffffffffffffffffffffffffff1602179055508173ffffffffffffffffffffffffffffffffffffffff168173ffffffffffffffffffffffffffffffffffffffff167f8be0079c531659141344cd1fd0a4f28419497f9722a3daafe3b4186f6b6457e060405160405180910390a35050565b828054620001719062000395565b90600052602060002090601f016020900481019282620001955760008555620001e1565b82601f10620001b057805160ff1916838001178555620001e1565b82800160010185558215620001e1579182015b82811115620001e0578251825591602001919060010190620001c3565b5b509050620001f09190620001f4565b5090565b5b808211156200020f576000816000905550600101620001f5565b5090565b60006200022a62000224846200032c565b620002f8565b9050828152602081018484840111156200024357600080fd5b620002508482856200035f565b509392505050565b600082601f8301126200026a57600080fd5b81516200027c84826020860162000213565b91505092915050565b600080604083850312156200029957600080fd5b600083015167ffffffffffffffff811115620002b457600080fd5b620002c28582860162000258565b925050602083015167ffffffffffffffff811115620002e057600080fd5b620002ee8582860162000258565b9150509250929050565b6000604051905081810181811067ffffffffffffffff82111715620003225762000321620003fa565b5b8060405250919050565b600067ffffffffffffffff8211156200034a5762000349620003fa565b5b601f19601f8301169050602081019050919050565b60005b838110156200037f57808201518184015260208101905062000362565b838111156200038f576000848401525b50505050565b60006002820490506001821680620003ae57607f821691505b60208210811415620003c557620003c4620003cb565b5b50919050565b7f4e487b7100000000000000000000000000000000000000000000000000000000600052602260045260246000fd5b7f4e487b7100000000000000000000000000000000000000000000000000000000600052604160045260246000fd5b613ca280620004396000396000f3fe608060405234801561001057600080fd5b506004361061014d5760003560e01c806370a08231116100c3578063b88d4fde1161007c578063b88d4fde14610375578063c87b56dd14610391578063e43252d7146103c1578063e985e9c5146103dd578063eacabe141461040d578063f2fde38b146104295761014d565b806370a08231146102c7578063715018a6146102f75780638ab1d681146103015780638da5cb5b1461031d57806395d89b411461033b578063a22cb465146103595761014d565b806323b872dd1161011557806323b872dd146102085780632a5c792a1461022457806342842e0e1461024357806344337ea11461025f578063537df3b61461027b5780636352211e146102975761014d565b806301ffc9a71461015257806306fdde0314610182578063081812fc146101a0578063095ea7b3146101d057806318e97fd1146101ec575b600080fd5b61016c6004803603810190610167919061297b565b610445565b60405161017991906134b7565b60405180910390f35b61018a610527565b60405161019791906134d2565b60405180910390f35b6101ba60048036038101906101b591906129cd565b6105b9565b6040516101c79190613419565b60405180910390f35b6101ea60048036038101906101e5919061293f565b61063e565b005b610206600480360381019061020191906129f6565b610756565b005b610222600480360381019061021d91906127e5565b610850565b005b61022c6108b0565b60405161023a929190613480565b60405180910390f35b61025d600480360381019061025891906127e5565b610b9f565b005b61027960048036038101906102749190612780565b610bbf565b005b61029560048036038101906102909190612780565b610d23565b005b6102b160048036038101906102ac91906129cd565b610dfa565b6040516102be9190613419565b60405180910390f35b6102e160048036038101906102dc9190612780565b610eac565b6040516102ee91906137b4565b60405180910390f35b6102ff610f64565b005b61031b60048036038101906103169190612780565b610fec565b005b6103256110c3565b6040516103329190613419565b60405180910390f35b6103436110ed565b60405161035091906134d2565b60405180910390f35b610373600480360381019061036e91906128af565b61117f565b005b61038f600480360381019061038a9190612834565b611195565b005b6103ab60048036038101906103a691906129cd565b6111f7565b6040516103b891906134d2565b60405180910390f35b6103db60048036038101906103d69190612780565b611349565b005b6103f760048036038101906103f291906127a9565b6114ad565b60405161040491906134b7565b60405180910390f35b610427600480360381019061042291906128eb565b611541565b005b610443600480360381019061043e9190612780565b6116cc565b005b60007f80ac58cd000000000000000000000000000000000000000000000000000000007bffffffffffffffffffffffffffffffffffffffffffffffffffffffff1916827bffffffffffffffffffffffffffffffffffffffffffffffffffffffff1916148061051057507f5b5e139f000000000000000000000000000000000000000000000000000000007bffffffffffffffffffffffffffffffffffffffffffffffffffffffff1916827bffffffffffffffffffffffffffffffffffffffffffffffffffffffff1916145b80610520575061051f826117c4565b5b9050919050565b60606000805461053690613a97565b80601f016020809104026020016040519081016040528092919081815260200182805461056290613a97565b80156105af5780601f10610584576101008083540402835291602001916105af565b820191906000526020600020905b81548152906001019060200180831161059257829003601f168201915b5050505050905090565b60006105c48261182e565b610603576040517f08c379a00000000000000000000000000000000000000000000000000000000081526004016105fa906136f4565b60405180910390fd5b6004600083815260200190815260200160002060009054906101000a900473ffffffffffffffffffffffffffffffffffffffff169050919050565b600061064982610dfa565b90508073ffffffffffffffffffffffffffffffffffffffff168373ffffffffffffffffffffffffffffffffffffffff1614156106ba576040517f08c379a00000000000000000000000000000000000000000000000000000000081526004016106b190613774565b60405180910390fd5b8073ffffffffffffffffffffffffffffffffffffffff166106d961189a565b73ffffffffffffffffffffffffffffffffffffffff16148061070857506107078161070261189a565b6114ad565b5b610747576040517f08c379a000000000000000000000000000000000000000000000000000000000815260040161073e906135f4565b60405180910390fd5b61075183836118a2565b505050565b61075e61189a565b73ffffffffffffffffffffffffffffffffffffffff1661077c6110c3565b73ffffffffffffffffffffffffffffffffffffffff16146107d2576040517f08c379a00000000000000000000000000000000000000000000000000000000081526004016107c990613714565b60405180910390fd5b6107db8261182e565b61081a576040517f08c379a000000000000000000000000000000000000000000000000000000000815260040161081190613674565b60405180910390fd5b610824828261195b565b80600b6000848152602001908152602001600020908051906020019061084b9291906125a4565b505050565b61086161085b61189a565b826119cf565b6108a0576040517f08c379a000000000000000000000000000000000000000000000000000000000815260040161089790613794565b60405180910390fd5b6108ab838383611aad565b505050565b6060803373ffffffffffffffffffffffffffffffffffffffff166108d26110c3565b73ffffffffffffffffffffffffffffffffffffffff16148061093d5750600960003373ffffffffffffffffffffffffffffffffffffffff1673ffffffffffffffffffffffffffffffffffffffff16815260200190815260200160002060009054906101000a900460ff165b61097c576040517f08c379a000000000000000000000000000000000000000000000000000000000815260040161097390613614565b60405180910390fd5b6000600c8054905067ffffffffffffffff8111156109c3577f4e487b7100000000000000000000000000000000000000000000000000000000600052604160045260246000fd5b6040519080825280602002602001820160405280156109f657816020015b60608152602001906001900390816109e15790505b50905060005b600c80549050811015610b4057600b6000600c8381548110610a47577f4e487b7100000000000000000000000000000000000000000000000000000000600052603260045260246000fd5b906000526020600020015481526020019081526020016000208054610a6b90613a97565b80601f0160208091040260200160405190810160405280929190818152602001828054610a9790613a97565b8015610ae45780601f10610ab957610100808354040283529160200191610ae4565b820191906000526020600020905b815481529060010190602001808311610ac757829003601f168201915b5050505050828281518110610b22577f4e487b7100000000000000000000000000000000000000000000000000000000600052603260045260246000fd5b60200260200101819052508080610b3890613ac9565b9150506109fc565b50600c8181805480602002602001604051908101604052809291908181526020018280548015610b8f57602002820191906000526020600020905b815481526020019060010190808311610b7b575b5050505050915092509250509091565b610bba83838360405180602001604052806000815250611195565b505050565b610bc761189a565b73ffffffffffffffffffffffffffffffffffffffff16610be56110c3565b73ffffffffffffffffffffffffffffffffffffffff1614610c3b576040517f08c379a0000000000000000000000000000000000000000000000000000000008152600401610c3290613714565b60405180910390fd5b600960008273ffffffffffffffffffffffffffffffffffffffff1673ffffffffffffffffffffffffffffffffffffffff16815260200190815260200160002060009054906101000a900460ff1615610cc8576040517f08c379a0000000000000000000000000000000000000000000000000000000008152600401610cbf906135d4565b60405180910390fd5b6001600a60008373ffffffffffffffffffffffffffffffffffffffff1673ffffffffffffffffffffffffffffffffffffffff16815260200190815260200160002060006101000a81548160ff02191690831515021790555050565b610d2b61189a565b73ffffffffffffffffffffffffffffffffffffffff16610d496110c3565b73ffffffffffffffffffffffffffffffffffffffff1614610d9f576040517f08c379a0000000000000000000000000000000000000000000000000000000008152600401610d9690613714565b60405180910390fd5b6000600a60008373ffffffffffffffffffffffffffffffffffffffff1673ffffffffffffffffffffffffffffffffffffffff16815260200190815260200160002060006101000a81548160ff02191690831515021790555050565b6000806002600084815260200190815260200160002060009054906101000a900473ffffffffffffffffffffffffffffffffffffffff169050600073ffffffffffffffffffffffffffffffffffffffff168173ffffffffffffffffffffffffffffffffffffffff161415610ea3576040517f08c379a0000000000000000000000000000000000000000000000000000000008152600401610e9a90613654565b60405180910390fd5b80915050919050565b60008073ffffffffffffffffffffffffffffffffffffffff168273ffffffffffffffffffffffffffffffffffffffff161415610f1d576040517f08c379a0000000000000000000000000000000000000000000000000000000008152600401610f1490613634565b60405180910390fd5b600360008373ffffffffffffffffffffffffffffffffffffffff1673ffffffffffffffffffffffffffffffffffffffff168152602001908152602001600020549050919050565b610f6c61189a565b73ffffffffffffffffffffffffffffffffffffffff16610f8a6110c3565b73ffffffffffffffffffffffffffffffffffffffff1614610fe0576040517f08c379a0000000000000000000000000000000000000000000000000000000008152600401610fd790613714565b60405180910390fd5b610fea6000611d09565b565b610ff461189a565b73ffffffffffffffffffffffffffffffffffffffff166110126110c3565b73ffffffffffffffffffffffffffffffffffffffff1614611068576040517f08c379a000000000000000000000000000000000000000000000000000000000815260040161105f90613714565b60405180910390fd5b6000600960008373ffffffffffffffffffffffffffffffffffffffff1673ffffffffffffffffffffffffffffffffffffffff16815260200190815260200160002060006101000a81548160ff02191690831515021790555050565b6000600760009054906101000a900473ffffffffffffffffffffffffffffffffffffffff16905090565b6060600180546110fc90613a97565b80601f016020809104026020016040519081016040528092919081815260200182805461112890613a97565b80156111755780601f1061114a57610100808354040283529160200191611175565b820191906000526020600020905b81548152906001019060200180831161115857829003601f168201915b5050505050905090565b61119161118a61189a565b8383611dcf565b5050565b6111a66111a061189a565b836119cf565b6111e5576040517f08c379a00000000000000000000000000000000000000000000000000000000081526004016111dc90613794565b60405180910390fd5b6111f184848484611f3c565b50505050565b60606112028261182e565b611241576040517f08c379a0000000000000000000000000000000000000000000000000000000008152600401611238906136d4565b60405180910390fd5b600060066000848152602001908152602001600020805461126190613a97565b80601f016020809104026020016040519081016040528092919081815260200182805461128d90613a97565b80156112da5780601f106112af576101008083540402835291602001916112da565b820191906000526020600020905b8154815290600101906020018083116112bd57829003601f168201915b5050505050905060006112eb611f98565b9050600081511415611301578192505050611344565b60008251111561133657808260405160200161131e9291906133f5565b60405160208183030381529060405292505050611344565b61133f84611faf565b925050505b919050565b61135161189a565b73ffffffffffffffffffffffffffffffffffffffff1661136f6110c3565b73ffffffffffffffffffffffffffffffffffffffff16146113c5576040517f08c379a00000000000000000000000000000000000000000000000000000000081526004016113bc90613714565b60405180910390fd5b600a60008273ffffffffffffffffffffffffffffffffffffffff1673ffffffffffffffffffffffffffffffffffffffff16815260200190815260200160002060009054906101000a900460ff1615611452576040517f08c379a000000000000000000000000000000000000000000000000000000000815260040161144990613694565b60405180910390fd5b6001600960008373ffffffffffffffffffffffffffffffffffffffff1673ffffffffffffffffffffffffffffffffffffffff16815260200190815260200160002060006101000a81548160ff02191690831515021790555050565b6000600560008473ffffffffffffffffffffffffffffffffffffffff1673ffffffffffffffffffffffffffffffffffffffff16815260200190815260200160002060008373ffffffffffffffffffffffffffffffffffffffff1673ffffffffffffffffffffffffffffffffffffffff16815260200190815260200160002060009054906101000a900460ff16905092915050565b61154961189a565b73ffffffffffffffffffffffffffffffffffffffff166115676110c3565b73ffffffffffffffffffffffffffffffffffffffff16146115bd576040517f08c379a00000000000000000000000000000000000000000000000000000000081526004016115b490613714565b60405180910390fd5b600a60008373ffffffffffffffffffffffffffffffffffffffff1673ffffffffffffffffffffffffffffffffffffffff16815260200190815260200160002060009054906101000a900460ff161561164a576040517f08c379a000000000000000000000000000000000000000000000000000000000815260040161164190613554565b60405180910390fd5b6116546008612056565b6000611660600861206c565b905061166c838261207a565b611676818361195b565b81600b6000838152602001908152602001600020908051906020019061169d9291906125a4565b50600c819080600181540180825580915050600190039060005260206000200160009091909190915055505050565b6116d461189a565b73ffffffffffffffffffffffffffffffffffffffff166116f26110c3565b73ffffffffffffffffffffffffffffffffffffffff1614611748576040517f08c379a000000000000000000000000000000000000000000000000000000000815260040161173f90613714565b60405180910390fd5b600073ffffffffffffffffffffffffffffffffffffffff168173ffffffffffffffffffffffffffffffffffffffff1614156117b8576040517f08c379a00000000000000000000000000000000000000000000000000000000081526004016117af90613514565b60405180910390fd5b6117c181611d09565b50565b60007f01ffc9a7000000000000000000000000000000000000000000000000000000007bffffffffffffffffffffffffffffffffffffffffffffffffffffffff1916827bffffffffffffffffffffffffffffffffffffffffffffffffffffffff1916149050919050565b60008073ffffffffffffffffffffffffffffffffffffffff166002600084815260200190815260200160002060009054906101000a900473ffffffffffffffffffffffffffffffffffffffff1673ffffffffffffffffffffffffffffffffffffffff1614159050919050565b600033905090565b816004600083815260200190815260200160002060006101000a81548173ffffffffffffffffffffffffffffffffffffffff021916908373ffffffffffffffffffffffffffffffffffffffff160217905550808273ffffffffffffffffffffffffffffffffffffffff1661191583610dfa565b73ffffffffffffffffffffffffffffffffffffffff167f8c5be1e5ebec7d5bd14f71427d1e84f3dd0314c0f7b2291e5b200ac8c7c3b92560405160405180910390a45050565b6119648261182e565b6119a3576040517f08c379a000000000000000000000000000000000000000000000000000000000815260040161199a90613674565b60405180910390fd5b806006600084815260200190815260200160002090805190602001906119ca9291906125a4565b505050565b60006119da8261182e565b611a19576040517f08c379a0000000000000000000000000000000000000000000000000000000008152600401611a10906135b4565b60405180910390fd5b6000611a2483610dfa565b90508073ffffffffffffffffffffffffffffffffffffffff168473ffffffffffffffffffffffffffffffffffffffff161480611a9357508373ffffffffffffffffffffffffffffffffffffffff16611a7b846105b9565b73ffffffffffffffffffffffffffffffffffffffff16145b80611aa45750611aa381856114ad565b5b91505092915050565b8273ffffffffffffffffffffffffffffffffffffffff16611acd82610dfa565b73ffffffffffffffffffffffffffffffffffffffff1614611b23576040517f08c379a0000000000000000000000000000000000000000000000000000000008152600401611b1a90613734565b60405180910390fd5b600073ffffffffffffffffffffffffffffffffffffffff168273ffffffffffffffffffffffffffffffffffffffff161415611b93576040517f08c379a0000000000000000000000000000000000000000000000000000000008152600401611b8a90613574565b60405180910390fd5b611b9e838383612248565b611ba96000826118a2565b6001600360008573ffffffffffffffffffffffffffffffffffffffff1673ffffffffffffffffffffffffffffffffffffffff1681526020019081526020016000206000828254611bf991906139ad565b925050819055506001600360008473ffffffffffffffffffffffffffffffffffffffff1673ffffffffffffffffffffffffffffffffffffffff1681526020019081526020016000206000828254611c509190613926565b92505081905550816002600083815260200190815260200160002060006101000a81548173ffffffffffffffffffffffffffffffffffffffff021916908373ffffffffffffffffffffffffffffffffffffffff160217905550808273ffffffffffffffffffffffffffffffffffffffff168473ffffffffffffffffffffffffffffffffffffffff167fddf252ad1be2c89b69c2b068fc378daa952ba7f163c4a11628f55a4df523b3ef60405160405180910390a4505050565b6000600760009054906101000a900473ffffffffffffffffffffffffffffffffffffffff16905081600760006101000a81548173ffffffffffffffffffffffffffffffffffffffff021916908373ffffffffffffffffffffffffffffffffffffffff1602179055508173ffffffffffffffffffffffffffffffffffffffff168173ffffffffffffffffffffffffffffffffffffffff167f8be0079c531659141344cd1fd0a4f28419497f9722a3daafe3b4186f6b6457e060405160405180910390a35050565b8173ffffffffffffffffffffffffffffffffffffffff168373ffffffffffffffffffffffffffffffffffffffff161415611e3e576040517f08c379a0000000000000000000000000000000000000000000000000000000008152600401611e3590613594565b60405180910390fd5b80600560008573ffffffffffffffffffffffffffffffffffffffff1673ffffffffffffffffffffffffffffffffffffffff16815260200190815260200160002060008473ffffffffffffffffffffffffffffffffffffffff1673ffffffffffffffffffffffffffffffffffffffff16815260200190815260200160002060006101000a81548160ff0219169083151502179055508173ffffffffffffffffffffffffffffffffffffffff168373ffffffffffffffffffffffffffffffffffffffff167f17307eab39ab6107e8899845ad3d59bd9653f200f220920489ca2b5937696c3183604051611f2f91906134b7565b60405180910390a3505050565b611f47848484611aad565b611f538484848461224d565b611f92576040517f08c379a0000000000000000000000000000000000000000000000000000000008152600401611f89906134f4565b60405180910390fd5b50505050565b606060405180602001604052806000815250905090565b6060611fba8261182e565b611ff9576040517f08c379a0000000000000000000000000000000000000000000000000000000008152600401611ff090613754565b60405180910390fd5b6000612003611f98565b90506000815111612023576040518060200160405280600081525061204e565b8061202d846123e4565b60405160200161203e9291906133f5565b6040516020818303038152906040525b915050919050565b6001816000016000828254019250508190555050565b600081600001549050919050565b600073ffffffffffffffffffffffffffffffffffffffff168273ffffffffffffffffffffffffffffffffffffffff1614156120ea576040517f08c379a00000000000000000000000000000000000000000000000000000000081526004016120e1906136b4565b60405180910390fd5b6120f38161182e565b15612133576040517f08c379a000000000000000000000000000000000000000000000000000000000815260040161212a90613534565b60405180910390fd5b61213f60008383612248565b6001600360008473ffffffffffffffffffffffffffffffffffffffff1673ffffffffffffffffffffffffffffffffffffffff168152602001908152602001600020600082825461218f9190613926565b92505081905550816002600083815260200190815260200160002060006101000a81548173ffffffffffffffffffffffffffffffffffffffff021916908373ffffffffffffffffffffffffffffffffffffffff160217905550808273ffffffffffffffffffffffffffffffffffffffff16600073ffffffffffffffffffffffffffffffffffffffff167fddf252ad1be2c89b69c2b068fc378daa952ba7f163c4a11628f55a4df523b3ef60405160405180910390a45050565b505050565b600061226e8473ffffffffffffffffffffffffffffffffffffffff16612591565b156123d7578373ffffffffffffffffffffffffffffffffffffffff1663150b7a0261229761189a565b8786866040518563ffffffff1660e01b81526004016122b99493929190613434565b602060405180830381600087803b1580156122d357600080fd5b505af192505050801561230457506040513d601f19601f8201168201806040525081019061230191906129a4565b60015b612387573d8060008114612334576040519150601f19603f3d011682016040523d82523d6000602084013e612339565b606091505b5060008151141561237f576040517f08c379a0000000000000000000000000000000000000000000000000000000008152600401612376906134f4565b60405180910390fd5b805181602001fd5b63150b7a0260e01b7bffffffffffffffffffffffffffffffffffffffffffffffffffffffff1916817bffffffffffffffffffffffffffffffffffffffffffffffffffffffff1916149150506123dc565b600190505b949350505050565b6060600082141561242c576040518060400160405280600181526020017f3000000000000000000000000000000000000000000000000000000000000000815250905061258c565b600082905060005b6000821461245e57808061244790613ac9565b915050600a82612457919061397c565b9150612434565b60008167ffffffffffffffff8111156124a0577f4e487b7100000000000000000000000000000000000000000000000000000000600052604160045260246000fd5b6040519080825280601f01601f1916602001820160405280156124d25781602001600182028036833780820191505090505b5090505b60008514612585576001826124eb91906139ad565b9150600a856124fa9190613b12565b60306125069190613926565b60f81b818381518110612542577f4e487b7100000000000000000000000000000000000000000000000000000000600052603260045260246000fd5b60200101907effffffffffffffffffffffffffffffffffffffffffffffffffffffffffffff1916908160001a905350600a8561257e919061397c565b94506124d6565b8093505050505b919050565b600080823b905060008111915050919050565b8280546125b090613a97565b90600052602060002090601f0160209004810192826125d25760008555612619565b82601f106125eb57805160ff1916838001178555612619565b82800160010185558215612619579182015b828111156126185782518255916020019190600101906125fd565b5b509050612626919061262a565b5090565b5b8082111561264357600081600090555060010161262b565b5090565b600061265a61265584613800565b6137cf565b90508281526020810184848401111561267257600080fd5b61267d848285613a55565b509392505050565b600061269861269384613830565b6137cf565b9050828152602081018484840111156126b057600080fd5b6126bb848285613a55565b509392505050565b6000813590506126d281613c10565b92915050565b6000813590506126e781613c27565b92915050565b6000813590506126fc81613c3e565b92915050565b60008151905061271181613c3e565b92915050565b600082601f83011261272857600080fd5b8135612738848260208601612647565b91505092915050565b600082601f83011261275257600080fd5b8135612762848260208601612685565b91505092915050565b60008135905061277a81613c55565b92915050565b60006020828403121561279257600080fd5b60006127a0848285016126c3565b91505092915050565b600080604083850312156127bc57600080fd5b60006127ca858286016126c3565b92505060206127db858286016126c3565b9150509250929050565b6000806000606084860312156127fa57600080fd5b6000612808868287016126c3565b9350506020612819868287016126c3565b925050604061282a8682870161276b565b9150509250925092565b6000806000806080858703121561284a57600080fd5b6000612858878288016126c3565b9450506020612869878288016126c3565b935050604061287a8782880161276b565b925050606085013567ffffffffffffffff81111561289757600080fd5b6128a387828801612717565b91505092959194509250565b600080604083850312156128c257600080fd5b60006128d0858286016126c3565b92505060206128e1858286016126d8565b9150509250929050565b600080604083850312156128fe57600080fd5b600061290c858286016126c3565b925050602083013567ffffffffffffffff81111561292957600080fd5b61293585828601612741565b9150509250929050565b6000806040838503121561295257600080fd5b6000612960858286016126c3565b92505060206129718582860161276b565b9150509250929050565b60006020828403121561298d57600080fd5b600061299b848285016126ed565b91505092915050565b6000602082840312156129b657600080fd5b60006129c484828501612702565b91505092915050565b6000602082840312156129df57600080fd5b60006129ed8482850161276b565b91505092915050565b60008060408385031215612a0957600080fd5b6000612a178582860161276b565b925050602083013567ffffffffffffffff811115612a3457600080fd5b612a4085828601612741565b9150509250929050565b6000612a568383612ba0565b905092915050565b6000612a6a83836133d7565b60208301905092915050565b612a7f816139e1565b82525050565b6000612a9082613880565b612a9a81856138c6565b935083602082028501612aac85613860565b8060005b85811015612ae85784840389528151612ac98582612a4a565b9450612ad4836138ac565b925060208a01995050600181019050612ab0565b50829750879550505050505092915050565b6000612b058261388b565b612b0f81856138d7565b9350612b1a83613870565b8060005b83811015612b4b578151612b328882612a5e565b9750612b3d836138b9565b925050600181019050612b1e565b5085935050505092915050565b612b61816139f3565b82525050565b6000612b7282613896565b612b7c81856138e8565b9350612b8c818560208601613a64565b612b9581613bff565b840191505092915050565b6000612bab826138a1565b612bb581856138f9565b9350612bc5818560208601613a64565b612bce81613bff565b840191505092915050565b6000612be4826138a1565b612bee818561390a565b9350612bfe818560208601613a64565b612c0781613bff565b840191505092915050565b6000612c1d826138a1565b612c27818561391b565b9350612c37818560208601613a64565b80840191505092915050565b6000612c5060328361390a565b91507f4552433732313a207472616e7366657220746f206e6f6e20455243373231526560008301527f63656976657220696d706c656d656e74657200000000000000000000000000006020830152604082019050919050565b6000612cb660268361390a565b91507f4f776e61626c653a206e6577206f776e657220697320746865207a65726f206160008301527f64647265737300000000000000000000000000000000000000000000000000006020830152604082019050919050565b6000612d1c601c8361390a565b91507f4552433732313a20746f6b656e20616c7265616479206d696e746564000000006000830152602082019050919050565b6000612d5c60188361390a565b91507f526563697069656e7420697320626c61636b6c697374656400000000000000006000830152602082019050919050565b6000612d9c60248361390a565b91507f4552433732313a207472616e7366657220746f20746865207a65726f2061646460008301527f72657373000000000000000000000000000000000000000000000000000000006020830152604082019050919050565b6000612e0260198361390a565b91507f4552433732313a20617070726f766520746f2063616c6c6572000000000000006000830152602082019050919050565b6000612e42602c8361390a565b91507f4552433732313a206f70657261746f7220717565727920666f72206e6f6e657860008301527f697374656e7420746f6b656e00000000000000000000000000000000000000006020830152604082019050919050565b6000612ea860138361390a565b91507f557365722069732077686974656c6973746564000000000000000000000000006000830152602082019050919050565b6000612ee860388361390a565b91507f4552433732313a20617070726f76652063616c6c6572206973206e6f74206f7760008301527f6e6572206e6f7220617070726f76656420666f7220616c6c00000000000000006020830152604082019050919050565b6000612f4e60188361390a565b91507f4e6f74206f776e6572206f722077686974656c697374656400000000000000006000830152602082019050919050565b6000612f8e602a8361390a565b91507f4552433732313a2062616c616e636520717565727920666f7220746865207a6560008301527f726f2061646472657373000000000000000000000000000000000000000000006020830152604082019050919050565b6000612ff460298361390a565b91507f4552433732313a206f776e657220717565727920666f72206e6f6e657869737460008301527f656e7420746f6b656e00000000000000000000000000000000000000000000006020830152604082019050919050565b600061305a602e8361390a565b91507f45524337323155524953746f726167653a2055524920736574206f66206e6f6e60008301527f6578697374656e7420746f6b656e0000000000000000000000000000000000006020830152604082019050919050565b60006130c060138361390a565b91507f5573657220697320626c61636b6c6973746564000000000000000000000000006000830152602082019050919050565b600061310060208361390a565b91507f4552433732313a206d696e7420746f20746865207a65726f20616464726573736000830152602082019050919050565b600061314060318361390a565b91507f45524337323155524953746f726167653a2055524920717565727920666f722060008301527f6e6f6e6578697374656e7420746f6b656e0000000000000000000000000000006020830152604082019050919050565b60006131a6602c8361390a565b91507f4552433732313a20617070726f76656420717565727920666f72206e6f6e657860008301527f697374656e7420746f6b656e00000000000000000000000000000000000000006020830152604082019050919050565b600061320c60208361390a565b91507f4f776e61626c653a2063616c6c6572206973206e6f7420746865206f776e65726000830152602082019050919050565b600061324c60298361390a565b91507f4552433732313a207472616e73666572206f6620746f6b656e2074686174206960008301527f73206e6f74206f776e00000000000000000000000000000000000000000000006020830152604082019050919050565b60006132b2602f8361390a565b91507f4552433732314d657461646174613a2055524920717565727920666f72206e6f60008301527f6e6578697374656e7420746f6b656e00000000000000000000000000000000006020830152604082019050919050565b600061331860218361390a565b91507f4552433732313a20617070726f76616c20746f2063757272656e74206f776e6560008301527f72000000000000000000000000000000000000000000000000000000000000006020830152604082019050919050565b600061337e60318361390a565b91507f4552433732313a207472616e736665722063616c6c6572206973206e6f74206f60008301527f776e6572206e6f7220617070726f7665640000000000000000000000000000006020830152604082019050919050565b6133e081613a4b565b82525050565b6133ef81613a4b565b82525050565b60006134018285612c12565b915061340d8284612c12565b91508190509392505050565b600060208201905061342e6000830184612a76565b92915050565b60006080820190506134496000830187612a76565b6134566020830186612a76565b61346360408301856133e6565b81810360608301526134758184612b67565b905095945050505050565b6000604082019050818103600083015261349a8185612afa565b905081810360208301526134ae8184612a85565b90509392505050565b60006020820190506134cc6000830184612b58565b92915050565b600060208201905081810360008301526134ec8184612bd9565b905092915050565b6000602082019050818103600083015261350d81612c43565b9050919050565b6000602082019050818103600083015261352d81612ca9565b9050919050565b6000602082019050818103600083015261354d81612d0f565b9050919050565b6000602082019050818103600083015261356d81612d4f565b9050919050565b6000602082019050818103600083015261358d81612d8f565b9050919050565b600060208201905081810360008301526135ad81612df5565b9050919050565b600060208201905081810360008301526135cd81612e35565b9050919050565b600060208201905081810360008301526135ed81612e9b565b9050919050565b6000602082019050818103600083015261360d81612edb565b9050919050565b6000602082019050818103600083015261362d81612f41565b9050919050565b6000602082019050818103600083015261364d81612f81565b9050919050565b6000602082019050818103600083015261366d81612fe7565b9050919050565b6000602082019050818103600083015261368d8161304d565b9050919050565b600060208201905081810360008301526136ad816130b3565b9050919050565b600060208201905081810360008301526136cd816130f3565b9050919050565b600060208201905081810360008301526136ed81613133565b9050919050565b6000602082019050818103600083015261370d81613199565b9050919050565b6000602082019050818103600083015261372d816131ff565b9050919050565b6000602082019050818103600083015261374d8161323f565b9050919050565b6000602082019050818103600083015261376d816132a5565b9050919050565b6000602082019050818103600083015261378d8161330b565b9050919050565b600060208201905081810360008301526137ad81613371565b9050919050565b60006020820190506137c960008301846133e6565b92915050565b6000604051905081810181811067ffffffffffffffff821117156137f6576137f5613bd0565b5b8060405250919050565b600067ffffffffffffffff82111561381b5761381a613bd0565b5b601f19601f8301169050602081019050919050565b600067ffffffffffffffff82111561384b5761384a613bd0565b5b601f19601f8301169050602081019050919050565b6000819050602082019050919050565b6000819050602082019050919050565b600081519050919050565b600081519050919050565b600081519050919050565b600081519050919050565b6000602082019050919050565b6000602082019050919050565b600082825260208201905092915050565b600082825260208201905092915050565b600082825260208201905092915050565b600082825260208201905092915050565b600082825260208201905092915050565b600081905092915050565b600061393182613a4b565b915061393c83613a4b565b9250827fffffffffffffffffffffffffffffffffffffffffffffffffffffffffffffffff0382111561397157613970613b43565b5b828201905092915050565b600061398782613a4b565b915061399283613a4b565b9250826139a2576139a1613b72565b5b828204905092915050565b60006139b882613a4b565b91506139c383613a4b565b9250828210156139d6576139d5613b43565b5b828203905092915050565b60006139ec82613a2b565b9050919050565b60008115159050919050565b60007fffffffff0000000000000000000000000000000000000000000000000000000082169050919050565b600073ffffffffffffffffffffffffffffffffffffffff82169050919050565b6000819050919050565b82818337600083830152505050565b60005b83811015613a82578082015181840152602081019050613a67565b83811115613a91576000848401525b50505050565b60006002820490506001821680613aaf57607f821691505b60208210811415613ac357613ac2613ba1565b5b50919050565b6000613ad482613a4b565b91507fffffffffffffffffffffffffffffffffffffffffffffffffffffffffffffffff821415613b0757613b06613b43565b5b600182019050919050565b6000613b1d82613a4b565b9150613b2883613a4b565b925082613b3857613b37613b72565b5b828206905092915050565b7f4e487b7100000000000000000000000000000000000000000000000000000000600052601160045260246000fd5b7f4e487b7100000000000000000000000000000000000000000000000000000000600052601260045260246000fd5b7f4e487b7100000000000000000000000000000000000000000000000000000000600052602260045260246000fd5b7f4e487b7100000000000000000000000000000000000000000000000000000000600052604160045260246000fd5b6000601f19601f8301169050919050565b613c19816139e1565b8114613c2457600080fd5b50565b613c30816139f3565b8114613c3b57600080fd5b50565b613c47816139ff565b8114613c5257600080fd5b50565b613c5e81613a4b565b8114613c6957600080fd5b5056fea2646970667358221220ee8ccd0838768ec712f11d4d52753120ff425757ef411795170b01a4b4895f2164736f6c63430008000033",
  "devdoc": {
    "kind": "dev",
    "methods": {
      "approve(address,uint256)": {
        "details": "See {IERC721-approve}."
      },
      "balanceOf(address)": {
        "details": "See {IERC721-balanceOf}."
      },
      "getApproved(uint256)": {
        "details": "See {IERC721-getApproved}."
      },
      "isApprovedForAll(address,address)": {
        "details": "See {IERC721-isApprovedForAll}."
      },
      "name()": {
        "details": "See {IERC721Metadata-name}."
      },
      "owner()": {
        "details": "Returns the address of the current owner."
      },
      "ownerOf(uint256)": {
        "details": "See {IERC721-ownerOf}."
      },
      "renounceOwnership()": {
        "details": "Leaves the contract without owner. It will not be possible to call `onlyOwner` functions anymore. Can only be called by the current owner. NOTE: Renouncing ownership will leave the contract without an owner, thereby removing any functionality that is only available to the owner."
      },
      "safeTransferFrom(address,address,uint256)": {
        "details": "See {IERC721-safeTransferFrom}."
      },
      "safeTransferFrom(address,address,uint256,bytes)": {
        "details": "See {IERC721-safeTransferFrom}."
      },
      "setApprovalForAll(address,bool)": {
        "details": "See {IERC721-setApprovalForAll}."
      },
      "supportsInterface(bytes4)": {
        "details": "See {IERC165-supportsInterface}."
      },
      "symbol()": {
        "details": "See {IERC721Metadata-symbol}."
      },
      "tokenURI(uint256)": {
        "details": "See {IERC721Metadata-tokenURI}."
      },
      "transferFrom(address,address,uint256)": {
        "details": "See {IERC721-transferFrom}."
      },
      "transferOwnership(address)": {
        "details": "Transfers ownership of the contract to a new account (`newOwner`). Can only be called by the current owner."
      }
    },
    "version": 1
  },
  "userdoc": {
    "kind": "user",
    "methods": {},
    "version": 1
  },
  "storageLayout": {
    "storage": [
      {
        "astId": 130,
        "contract": "src/NFT.sol:NFTShield",
        "label": "_name",
        "offset": 0,
        "slot": "0",
        "type": "t_string_storage"
      },
      {
        "astId": 132,
        "contract": "src/NFT.sol:NFTShield",
        "label": "_symbol",
        "offset": 0,
        "slot": "1",
        "type": "t_string_storage"
      },
      {
        "astId": 136,
        "contract": "src/NFT.sol:NFTShield",
        "label": "_owners",
        "offset": 0,
        "slot": "2",
        "type": "t_mapping(t_uint256,t_address)"
      },
      {
        "astId": 140,
        "contract": "src/NFT.sol:NFTShield",
        "label": "_balances",
        "offset": 0,
        "slot": "3",
        "type": "t_mapping(t_address,t_uint256)"
      },
      {
        "astId": 144,
        "contract": "src/NFT.sol:NFTShield",
        "label": "_tokenApprovals",
        "offset": 0,
        "slot": "4",
        "type": "t_mapping(t_uint256,t_address)"
      },
      {
        "astId": 150,
        "contract": "src/NFT.sol:NFTShield",
        "label": "_operatorApprovals",
        "offset": 0,
        "slot": "5",
        "type": "t_mapping(t_address,t_mapping(t_address,t_bool))"
      },
      {
        "astId": 1082,
        "contract": "src/NFT.sol:NFTShield",
        "label": "_tokenURIs",
        "offset": 0,
        "slot": "6",
        "type": "t_mapping(t_uint256,t_string_storage)"
      },
      {
        "astId": 7,
        "contract": "src/NFT.sol:NFTShield",
        "label": "_owner",
        "offset": 0,
        "slot": "7",
        "type": "t_address"
      },
      {
        "astId": 1872,
        "contract": "src/NFT.sol:NFTShield",
        "label": "_tokenIdCounter",
        "offset": 0,
        "slot": "8",
        "type": "t_struct(Counter)1549_storage"
      },
      {
        "astId": 1876,
        "contract": "src/NFT.sol:NFTShield",
        "label": "_whitelist",
        "offset": 0,
        "slot": "9",
        "type": "t_mapping(t_address,t_bool)"
      },
      {
        "astId": 1880,
        "contract": "src/NFT.sol:NFTShield",
        "label": "_blacklist",
        "offset": 0,
        "slot": "10",
        "type": "t_mapping(t_address,t_bool)"
      },
      {
        "astId": 1884,
        "contract": "src/NFT.sol:NFTShield",
        "label": "_tokenURIs",
        "offset": 0,
        "slot": "11",
        "type": "t_mapping(t_uint256,t_string_storage)"
      },
      {
        "astId": 1887,
        "contract": "src/NFT.sol:NFTShield",
        "label": "_allTokens",
        "offset": 0,
        "slot": "12",
        "type": "t_array(t_uint256)dyn_storage"
      }
    ],
    "types": {
      "t_address": {
        "encoding": "inplace",
        "label": "address",
        "numberOfBytes": "20"
      },
      "t_array(t_uint256)dyn_storage": {
        "base": "t_uint256",
        "encoding": "dynamic_array",
        "label": "uint256[]",
        "numberOfBytes": "32"
      },
      "t_bool": {
        "encoding": "inplace",
        "label": "bool",
        "numberOfBytes": "1"
      },
      "t_mapping(t_address,t_bool)": {
        "encoding": "mapping",
        "key": "t_address",
        "label": "mapping(address => bool)",
        "numberOfBytes": "32",
        "value": "t_bool"
      },
      "t_mapping(t_address,t_mapping(t_address,t_bool))": {
        "encoding": "mapping",
        "key": "t_address",
        "label": "mapping(address => mapping(address => bool))",
        "numberOfBytes": "32",
        "value": "t_mapping(t_address,t_bool)"
      },
      "t_mapping(t_address,t_uint256)": {
        "encoding": "mapping",
        "key": "t_address",
        "label": "mapping(address => uint256)",
        "numberOfBytes": "32",
        "value": "t_uint256"
      },
      "t_mapping(t_uint256,t_address)": {
        "encoding": "mapping",
        "key": "t_uint256",
        "label": "mapping(uint256 => address)",
        "numberOfBytes": "32",
        "value": "t_address"
      },
      "t_mapping(t_uint256,t_string_storage)": {
        "encoding": "mapping",
        "key": "t_uint256",
        "label": "mapping(uint256 => string)",
        "numberOfBytes": "32",
        "value": "t_string_storage"
      },
      "t_string_storage": {
        "encoding": "bytes",
        "label": "string",
        "numberOfBytes": "32"
      },
      "t_struct(Counter)1549_storage": {
        "encoding": "inplace",
        "label": "struct Counters.Counter",
        "members": [
          {
            "astId": 1548,
            "contract": "src/NFT.sol:NFTShield",
            "label": "_value",
            "offset": 0,
            "slot": "0",
            "type": "t_uint256"
          }
        ],
        "numberOfBytes": "32"
      },
      "t_uint256": {
        "encoding": "inplace",
        "label": "uint256",
        "numberOfBytes": "32"
      }
    }
  }
}