{
  "_format": "hh-sol-artifact-1",
  "contractName": "EHRVault",
  "sourceName": "contracts/EHRVault.sol",
  "abi": [
    {
      "anonymous": false,
      "inputs": [
        {
          "indexed": true,
          "internalType": "uint256",
          "name": "id",
          "type": "uint256"
        }
      ],
      "name": "RecordAdded",
      "type": "event"
    },
    {
      "inputs": [
        {
          "components": [
            {
              "internalType": "uint256",
              "name": "id",
              "type": "uint256"
            },
            {
              "internalType": "address",
              "name": "recordAddress",
              "type": "address"
            },
            {
              "internalType": "string",
              "name": "metadata",
              "type": "string"
            },
            {
              "internalType": "string",
              "name": "name",
              "type": "string"
            },
            {
              "internalType": "string",
              "name": "ipfs",
              "type": "string"
            },
            {
              "internalType": "string",
              "name": "patientUid",
              "type": "string"
            }
          ],
          "internalType": "struct EHRVault.Record",
          "name": "_record",
          "type": "tuple"
        }
      ],
      "name": "addRecord",
      "outputs": [
        {
          "internalType": "uint256",
          "name": "",
          "type": "uint256"
        }
      ],
      "stateMutability": "nonpayable",
      "type": "function"
    },
    {
      "inputs": [
        {
          "internalType": "uint256",
          "name": "id",
          "type": "uint256"
        }
      ],
      "name": "getRecord",
      "outputs": [
        {
          "components": [
            {
              "internalType": "uint256",
              "name": "id",
              "type": "uint256"
            },
            {
              "internalType": "address",
              "name": "recordAddress",
              "type": "address"
            },
            {
              "internalType": "string",
              "name": "metadata",
              "type": "string"
            },
            {
              "internalType": "string",
              "name": "name",
              "type": "string"
            },
            {
              "internalType": "string",
              "name": "ipfs",
              "type": "string"
            },
            {
              "internalType": "string",
              "name": "patientUid",
              "type": "string"
            }
          ],
          "internalType": "struct EHRVault.Record",
          "name": "",
          "type": "tuple"
        }
      ],
      "stateMutability": "view",
      "type": "function"
    },
    {
      "inputs": [
        {
          "internalType": "address",
          "name": "recordAddress",
          "type": "address"
        }
      ],
      "name": "getRecordsByAddress",
      "outputs": [
        {
          "components": [
            {
              "internalType": "uint256",
              "name": "id",
              "type": "uint256"
            },
            {
              "internalType": "address",
              "name": "recordAddress",
              "type": "address"
            },
            {
              "internalType": "string",
              "name": "metadata",
              "type": "string"
            },
            {
              "internalType": "string",
              "name": "name",
              "type": "string"
            },
            {
              "internalType": "string",
              "name": "ipfs",
              "type": "string"
            },
            {
              "internalType": "string",
              "name": "patientUid",
              "type": "string"
            }
          ],
          "internalType": "struct EHRVault.Record[]",
          "name": "",
          "type": "tuple[]"
        }
      ],
      "stateMutability": "view",
      "type": "function"
    },
    {
      "inputs": [
        {
          "internalType": "string",
          "name": "patientUid",
          "type": "string"
        }
      ],
      "name": "getRecordsByPatientId",
      "outputs": [
        {
          "components": [
            {
              "internalType": "uint256",
              "name": "id",
              "type": "uint256"
            },
            {
              "internalType": "address",
              "name": "recordAddress",
              "type": "address"
            },
            {
              "internalType": "string",
              "name": "metadata",
              "type": "string"
            },
            {
              "internalType": "string",
              "name": "name",
              "type": "string"
            },
            {
              "internalType": "string",
              "name": "ipfs",
              "type": "string"
            },
            {
              "internalType": "string",
              "name": "patientUid",
              "type": "string"
            }
          ],
          "internalType": "struct EHRVault.Record[]",
          "name": "",
          "type": "tuple[]"
        }
      ],
      "stateMutability": "view",
      "type": "function"
    },
    {
      "inputs": [],
      "name": "totalRecords",
      "outputs": [
        {
          "internalType": "uint256",
          "name": "",
          "type": "uint256"
        }
      ],
      "stateMutability": "view",
      "type": "function"
    }
  ],
  "bytecode": "0x608060405234801561001057600080fd5b506117d9806100206000396000f3fe608060405234801561001057600080fd5b50600436106100575760003560e01c806303e9e6091461005c578063125f89741461008c578063571d1d8e146100aa578063ad88bb27146100da578063b25fb4511461010a575b600080fd5b61007660048036038101906100719190611177565b61013a565b60405161008391906114cb565b60405180910390f35b61009461040f565b6040516100a191906114ed565b60405180910390f35b6100c460048036038101906100bf9190611136565b610420565b6040516100d191906114ed565b60405180910390f35b6100f460048036038101906100ef91906110cc565b6105a8565b60405161010191906114a9565b60405180910390f35b610124600480360381019061011f91906110f5565b6109ea565b60405161013191906114a9565b60405180910390f35b610142610e4f565b600160008381526020019081526020016000206040518060c0016040529081600082015481526020016001820160009054906101000a900473ffffffffffffffffffffffffffffffffffffffff1673ffffffffffffffffffffffffffffffffffffffff1673ffffffffffffffffffffffffffffffffffffffff1681526020016002820180546101d09061165c565b80601f01602080910402602001604051908101604052809291908181526020018280546101fc9061165c565b80156102495780601f1061021e57610100808354040283529160200191610249565b820191906000526020600020905b81548152906001019060200180831161022c57829003601f168201915b505050505081526020016003820180546102629061165c565b80601f016020809104026020016040519081016040528092919081815260200182805461028e9061165c565b80156102db5780601f106102b0576101008083540402835291602001916102db565b820191906000526020600020905b8154815290600101906020018083116102be57829003601f168201915b505050505081526020016004820180546102f49061165c565b80601f01602080910402602001604051908101604052809291908181526020018280546103209061165c565b801561036d5780601f106103425761010080835404028352916020019161036d565b820191906000526020600020905b81548152906001019060200180831161035057829003601f168201915b505050505081526020016005820180546103869061165c565b80601f01602080910402602001604051908101604052809291908181526020018280546103b29061165c565b80156103ff5780601f106103d4576101008083540402835291602001916103ff565b820191906000526020600020905b8154815290600101906020018083116103e257829003601f168201915b5050505050815250509050919050565b600061041b6000610e2b565b905090565b600061042c6000610e39565b60006104386000610e2b565b905060006040518060c00160405280838152602001856020015173ffffffffffffffffffffffffffffffffffffffff1681526020018560400151815260200185606001518152602001856080015181526020018560a00151815250905080600160008481526020019081526020016000206000820151816000015560208201518160010160006101000a81548173ffffffffffffffffffffffffffffffffffffffff021916908373ffffffffffffffffffffffffffffffffffffffff1602179055506040820151816002019080519060200190610516929190610e9b565b506060820151816003019080519060200190610533929190610e9b565b506080820151816004019080519060200190610550929190610e9b565b5060a082015181600501908051906020019061056d929190610e9b565b50905050817fd1959b6f21a13d63764a45c846f4a58f7e55291fb17591ff1d1b3fd4c2953e4560405160405180910390a28192505050919050565b606060006105b66000610e2b565b67ffffffffffffffff8111156105f5577f4e487b7100000000000000000000000000000000000000000000000000000000600052604160045260246000fd5b60405190808252806020026020018201604052801561062e57816020015b61061b610e4f565b8152602001906001900390816106135790505b509050600080600190505b6106436000610e2b565b81116109df578473ffffffffffffffffffffffffffffffffffffffff166001600083815260200190815260200160002060010160009054906101000a900473ffffffffffffffffffffffffffffffffffffffff1673ffffffffffffffffffffffffffffffffffffffff1614156109cc57600160008281526020019081526020016000206040518060c0016040529081600082015481526020016001820160009054906101000a900473ffffffffffffffffffffffffffffffffffffffff1673ffffffffffffffffffffffffffffffffffffffff1673ffffffffffffffffffffffffffffffffffffffff1681526020016002820180546107419061165c565b80601f016020809104026020016040519081016040528092919081815260200182805461076d9061165c565b80156107ba5780601f1061078f576101008083540402835291602001916107ba565b820191906000526020600020905b81548152906001019060200180831161079d57829003601f168201915b505050505081526020016003820180546107d39061165c565b80601f01602080910402602001604051908101604052809291908181526020018280546107ff9061165c565b801561084c5780601f106108215761010080835404028352916020019161084c565b820191906000526020600020905b81548152906001019060200180831161082f57829003601f168201915b505050505081526020016004820180546108659061165c565b80601f01602080910402602001604051908101604052809291908181526020018280546108919061165c565b80156108de5780601f106108b3576101008083540402835291602001916108de565b820191906000526020600020905b8154815290600101906020018083116108c157829003601f168201915b505050505081526020016005820180546108f79061165c565b80601f01602080910402602001604051908101604052809291908181526020018280546109239061165c565b80156109705780601f1061094557610100808354040283529160200191610970565b820191906000526020600020905b81548152906001019060200180831161095357829003601f168201915b5050505050815250508383815181106109b2577f4e487b7100000000000000000000000000000000000000000000000000000000600052603260045260246000fd5b602002602001018190525081806109c89061168e565b9250505b80806109d79061168e565b915050610639565b508192505050919050565b606060006109f86000610e2b565b67ffffffffffffffff811115610a37577f4e487b7100000000000000000000000000000000000000000000000000000000600052604160045260246000fd5b604051908082528060200260200182016040528015610a7057816020015b610a5d610e4f565b815260200190600190039081610a555790505b509050600080600190505b610a856000610e2b565b8111610e205784604051602001610a9c919061147b565b6040516020818303038152906040528051906020012060016000838152602001908152602001600020600501604051602001610ad89190611492565b604051602081830303815290604052805190602001201415610e0d57600160008281526020019081526020016000206040518060c0016040529081600082015481526020016001820160009054906101000a900473ffffffffffffffffffffffffffffffffffffffff1673ffffffffffffffffffffffffffffffffffffffff1673ffffffffffffffffffffffffffffffffffffffff168152602001600282018054610b829061165c565b80601f0160208091040260200160405190810160405280929190818152602001828054610bae9061165c565b8015610bfb5780601f10610bd057610100808354040283529160200191610bfb565b820191906000526020600020905b815481529060010190602001808311610bde57829003601f168201915b50505050508152602001600382018054610c149061165c565b80601f0160208091040260200160405190810160405280929190818152602001828054610c409061165c565b8015610c8d5780601f10610c6257610100808354040283529160200191610c8d565b820191906000526020600020905b815481529060010190602001808311610c7057829003601f168201915b50505050508152602001600482018054610ca69061165c565b80601f0160208091040260200160405190810160405280929190818152602001828054610cd29061165c565b8015610d1f5780601f10610cf457610100808354040283529160200191610d1f565b820191906000526020600020905b815481529060010190602001808311610d0257829003601f168201915b50505050508152602001600582018054610d389061165c565b80601f0160208091040260200160405190810160405280929190818152602001828054610d649061165c565b8015610db15780601f10610d8657610100808354040283529160200191610db1565b820191906000526020600020905b815481529060010190602001808311610d9457829003601f168201915b505050505081525050838381518110610df3577f4e487b7100000000000000000000000000000000000000000000000000000000600052603260045260246000fd5b60200260200101819052508180610e099061168e565b9250505b8080610e189061168e565b915050610a7b565b508192505050919050565b600081600001549050919050565b6001816000016000828254019250508190555050565b6040518060c0016040528060008152602001600073ffffffffffffffffffffffffffffffffffffffff168152602001606081526020016060815260200160608152602001606081525090565b828054610ea79061165c565b90600052602060002090601f016020900481019282610ec95760008555610f10565b82601f10610ee257805160ff1916838001178555610f10565b82800160010185558215610f10579182015b82811115610f0f578251825591602001919060010190610ef4565b5b509050610f1d9190610f21565b5090565b5b80821115610f3a576000816000905550600101610f22565b5090565b6000610f51610f4c84611539565b611508565b905082815260208101848484011115610f6957600080fd5b610f7484828561161a565b509392505050565b600081359050610f8b81611775565b92915050565b600082601f830112610fa257600080fd5b8135610fb2848260208601610f3e565b91505092915050565b600060c08284031215610fcd57600080fd5b610fd760c0611508565b90506000610fe7848285016110b7565b6000830152506020610ffb84828501610f7c565b602083015250604082013567ffffffffffffffff81111561101b57600080fd5b61102784828501610f91565b604083015250606082013567ffffffffffffffff81111561104757600080fd5b61105384828501610f91565b606083015250608082013567ffffffffffffffff81111561107357600080fd5b61107f84828501610f91565b60808301525060a082013567ffffffffffffffff81111561109f57600080fd5b6110ab84828501610f91565b60a08301525092915050565b6000813590506110c68161178c565b92915050565b6000602082840312156110de57600080fd5b60006110ec84828501610f7c565b91505092915050565b60006020828403121561110757600080fd5b600082013567ffffffffffffffff81111561112157600080fd5b61112d84828501610f91565b91505092915050565b60006020828403121561114857600080fd5b600082013567ffffffffffffffff81111561116257600080fd5b61116e84828501610fbb565b91505092915050565b60006020828403121561118957600080fd5b6000611197848285016110b7565b91505092915050565b60006111ac8383611321565b905092915050565b6111bd816115de565b82525050565b60006111ce8261158e565b6111d881856115b1565b9350836020820285016111ea85611569565b8060005b85811015611226578484038952815161120785826111a0565b9450611212836115a4565b925060208a019950506001810190506111ee565b50829750879550505050505092915050565b600061124382611599565b61124d81856115c2565b935061125d818560208601611629565b61126681611764565b840191505092915050565b600061127c82611599565b61128681856115d3565b9350611296818560208601611629565b80840191505092915050565b600081546112af8161165c565b6112b981866115d3565b945060018216600081146112d457600181146112e557611318565b60ff19831686528186019350611318565b6112ee85611579565b60005b83811015611310578154818901526001820191506020810190506112f1565b838801955050505b50505092915050565b600060c083016000830151611339600086018261145d565b50602083015161134c60208601826111b4565b50604083015184820360408601526113648282611238565b9150506060830151848203606086015261137e8282611238565b915050608083015184820360808601526113988282611238565b91505060a083015184820360a08601526113b28282611238565b9150508091505092915050565b600060c0830160008301516113d7600086018261145d565b5060208301516113ea60208601826111b4565b50604083015184820360408601526114028282611238565b9150506060830151848203606086015261141c8282611238565b915050608083015184820360808601526114368282611238565b91505060a083015184820360a08601526114508282611238565b9150508091505092915050565b61146681611610565b82525050565b61147581611610565b82525050565b60006114878284611271565b915081905092915050565b600061149e82846112a2565b915081905092915050565b600060208201905081810360008301526114c381846111c3565b905092915050565b600060208201905081810360008301526114e581846113bf565b905092915050565b6000602082019050611502600083018461146c565b92915050565b6000604051905081810181811067ffffffffffffffff8211171561152f5761152e611735565b5b8060405250919050565b600067ffffffffffffffff82111561155457611553611735565b5b601f19601f8301169050602081019050919050565b6000819050602082019050919050565b60008190508160005260206000209050919050565b600081519050919050565b600081519050919050565b6000602082019050919050565b600082825260208201905092915050565b600082825260208201905092915050565b600081905092915050565b60006115e9826115f0565b9050919050565b600073ffffffffffffffffffffffffffffffffffffffff82169050919050565b6000819050919050565b82818337600083830152505050565b60005b8381101561164757808201518184015260208101905061162c565b83811115611656576000848401525b50505050565b6000600282049050600182168061167457607f821691505b6020821081141561168857611687611706565b5b50919050565b600061169982611610565b91507fffffffffffffffffffffffffffffffffffffffffffffffffffffffffffffffff8214156116cc576116cb6116d7565b5b600182019050919050565b7f4e487b7100000000000000000000000000000000000000000000000000000000600052601160045260246000fd5b7f4e487b7100000000000000000000000000000000000000000000000000000000600052602260045260246000fd5b7f4e487b7100000000000000000000000000000000000000000000000000000000600052604160045260246000fd5b6000601f19601f8301169050919050565b61177e816115de565b811461178957600080fd5b50565b61179581611610565b81146117a057600080fd5b5056fea26469706673582212205933f9dde6b1919278f711848225c95a4b38f82675189f28d0170fe1344510ba64736f6c63430008000033",
  "linkReferences": {},
  "deployedLinkReferences": {}
}